{
  "contractName": "MyToken",
  "abi": [
    {
      "inputs": [],
      "stateMutability": "nonpayable",
      "type": "constructor"
    },
    {
      "anonymous": false,
      "inputs": [
        {
          "indexed": true,
          "internalType": "address",
          "name": "owner",
          "type": "address"
        },
        {
          "indexed": true,
          "internalType": "address",
          "name": "spender",
          "type": "address"
        },
        {
          "indexed": false,
          "internalType": "uint256",
          "name": "value",
          "type": "uint256"
        }
      ],
      "name": "Approval",
      "type": "event"
    },
    {
      "anonymous": false,
      "inputs": [
        {
          "indexed": true,
          "internalType": "address",
          "name": "previousOwner",
          "type": "address"
        },
        {
          "indexed": true,
          "internalType": "address",
          "name": "newOwner",
          "type": "address"
        }
      ],
      "name": "OwnershipTransferred",
      "type": "event"
    },
    {
      "anonymous": false,
      "inputs": [
        {
          "indexed": false,
          "internalType": "address",
          "name": "account",
          "type": "address"
        }
      ],
      "name": "Paused",
      "type": "event"
    },
    {
      "anonymous": false,
      "inputs": [
        {
          "indexed": false,
          "internalType": "uint256",
          "name": "id",
          "type": "uint256"
        }
      ],
      "name": "Snapshot",
      "type": "event"
    },
    {
      "anonymous": false,
      "inputs": [
        {
          "indexed": true,
          "internalType": "address",
          "name": "from",
          "type": "address"
        },
        {
          "indexed": true,
          "internalType": "address",
          "name": "to",
          "type": "address"
        },
        {
          "indexed": false,
          "internalType": "uint256",
          "name": "value",
          "type": "uint256"
        }
      ],
      "name": "Transfer",
      "type": "event"
    },
    {
      "anonymous": false,
      "inputs": [
        {
          "indexed": false,
          "internalType": "address",
          "name": "account",
          "type": "address"
        }
      ],
      "name": "Unpaused",
      "type": "event"
    },
    {
      "inputs": [],
      "name": "DOMAIN_SEPARATOR",
      "outputs": [
        {
          "internalType": "bytes32",
          "name": "",
          "type": "bytes32"
        }
      ],
      "stateMutability": "view",
      "type": "function"
    },
    {
      "inputs": [
        {
          "internalType": "address",
          "name": "owner",
          "type": "address"
        },
        {
          "internalType": "address",
          "name": "spender",
          "type": "address"
        }
      ],
      "name": "allowance",
      "outputs": [
        {
          "internalType": "uint256",
          "name": "",
          "type": "uint256"
        }
      ],
      "stateMutability": "view",
      "type": "function"
    },
    {
      "inputs": [
        {
          "internalType": "address",
          "name": "spender",
          "type": "address"
        },
        {
          "internalType": "uint256",
          "name": "amount",
          "type": "uint256"
        }
      ],
      "name": "approve",
      "outputs": [
        {
          "internalType": "bool",
          "name": "",
          "type": "bool"
        }
      ],
      "stateMutability": "nonpayable",
      "type": "function"
    },
    {
      "inputs": [
        {
          "internalType": "address",
          "name": "account",
          "type": "address"
        }
      ],
      "name": "balanceOf",
      "outputs": [
        {
          "internalType": "uint256",
          "name": "",
          "type": "uint256"
        }
      ],
      "stateMutability": "view",
      "type": "function"
    },
    {
      "inputs": [
        {
          "internalType": "address",
          "name": "account",
          "type": "address"
        },
        {
          "internalType": "uint256",
          "name": "snapshotId",
          "type": "uint256"
        }
      ],
      "name": "balanceOfAt",
      "outputs": [
        {
          "internalType": "uint256",
          "name": "",
          "type": "uint256"
        }
      ],
      "stateMutability": "view",
      "type": "function"
    },
    {
      "inputs": [
        {
          "internalType": "uint256",
          "name": "amount",
          "type": "uint256"
        }
      ],
      "name": "burn",
      "outputs": [],
      "stateMutability": "nonpayable",
      "type": "function"
    },
    {
      "inputs": [
        {
          "internalType": "address",
          "name": "account",
          "type": "address"
        },
        {
          "internalType": "uint256",
          "name": "amount",
          "type": "uint256"
        }
      ],
      "name": "burnFrom",
      "outputs": [],
      "stateMutability": "nonpayable",
      "type": "function"
    },
    {
      "inputs": [],
      "name": "decimals",
      "outputs": [
        {
          "internalType": "uint8",
          "name": "",
          "type": "uint8"
        }
      ],
      "stateMutability": "view",
      "type": "function"
    },
    {
      "inputs": [
        {
          "internalType": "address",
          "name": "spender",
          "type": "address"
        },
        {
          "internalType": "uint256",
          "name": "subtractedValue",
          "type": "uint256"
        }
      ],
      "name": "decreaseAllowance",
      "outputs": [
        {
          "internalType": "bool",
          "name": "",
          "type": "bool"
        }
      ],
      "stateMutability": "nonpayable",
      "type": "function"
    },
    {
      "inputs": [
        {
          "internalType": "address",
          "name": "spender",
          "type": "address"
        },
        {
          "internalType": "uint256",
          "name": "addedValue",
          "type": "uint256"
        }
      ],
      "name": "increaseAllowance",
      "outputs": [
        {
          "internalType": "bool",
          "name": "",
          "type": "bool"
        }
      ],
      "stateMutability": "nonpayable",
      "type": "function"
    },
    {
      "inputs": [],
      "name": "name",
      "outputs": [
        {
          "internalType": "string",
          "name": "",
          "type": "string"
        }
      ],
      "stateMutability": "view",
      "type": "function"
    },
    {
      "inputs": [
        {
          "internalType": "address",
          "name": "owner",
          "type": "address"
        }
      ],
      "name": "nonces",
      "outputs": [
        {
          "internalType": "uint256",
          "name": "",
          "type": "uint256"
        }
      ],
      "stateMutability": "view",
      "type": "function"
    },
    {
      "inputs": [],
      "name": "owner",
      "outputs": [
        {
          "internalType": "address",
          "name": "",
          "type": "address"
        }
      ],
      "stateMutability": "view",
      "type": "function"
    },
    {
      "inputs": [],
      "name": "paused",
      "outputs": [
        {
          "internalType": "bool",
          "name": "",
          "type": "bool"
        }
      ],
      "stateMutability": "view",
      "type": "function"
    },
    {
      "inputs": [
        {
          "internalType": "address",
          "name": "owner",
          "type": "address"
        },
        {
          "internalType": "address",
          "name": "spender",
          "type": "address"
        },
        {
          "internalType": "uint256",
          "name": "value",
          "type": "uint256"
        },
        {
          "internalType": "uint256",
          "name": "deadline",
          "type": "uint256"
        },
        {
          "internalType": "uint8",
          "name": "v",
          "type": "uint8"
        },
        {
          "internalType": "bytes32",
          "name": "r",
          "type": "bytes32"
        },
        {
          "internalType": "bytes32",
          "name": "s",
          "type": "bytes32"
        }
      ],
      "name": "permit",
      "outputs": [],
      "stateMutability": "nonpayable",
      "type": "function"
    },
    {
      "inputs": [],
      "name": "renounceOwnership",
      "outputs": [],
      "stateMutability": "nonpayable",
      "type": "function"
    },
    {
      "inputs": [],
      "name": "symbol",
      "outputs": [
        {
          "internalType": "string",
          "name": "",
          "type": "string"
        }
      ],
      "stateMutability": "view",
      "type": "function"
    },
    {
      "inputs": [],
      "name": "totalSupply",
      "outputs": [
        {
          "internalType": "uint256",
          "name": "",
          "type": "uint256"
        }
      ],
      "stateMutability": "view",
      "type": "function"
    },
    {
      "inputs": [
        {
          "internalType": "uint256",
          "name": "snapshotId",
          "type": "uint256"
        }
      ],
      "name": "totalSupplyAt",
      "outputs": [
        {
          "internalType": "uint256",
          "name": "",
          "type": "uint256"
        }
      ],
      "stateMutability": "view",
      "type": "function"
    },
    {
      "inputs": [
        {
          "internalType": "address",
          "name": "to",
          "type": "address"
        },
        {
          "internalType": "uint256",
          "name": "amount",
          "type": "uint256"
        }
      ],
      "name": "transfer",
      "outputs": [
        {
          "internalType": "bool",
          "name": "",
          "type": "bool"
        }
      ],
      "stateMutability": "nonpayable",
      "type": "function"
    },
    {
      "inputs": [
        {
          "internalType": "address",
          "name": "from",
          "type": "address"
        },
        {
          "internalType": "address",
          "name": "to",
          "type": "address"
        },
        {
          "internalType": "uint256",
          "name": "amount",
          "type": "uint256"
        }
      ],
      "name": "transferFrom",
      "outputs": [
        {
          "internalType": "bool",
          "name": "",
          "type": "bool"
        }
      ],
      "stateMutability": "nonpayable",
      "type": "function"
    },
    {
      "inputs": [
        {
          "internalType": "address",
          "name": "newOwner",
          "type": "address"
        }
      ],
      "name": "transferOwnership",
      "outputs": [],
      "stateMutability": "nonpayable",
      "type": "function"
    },
    {
      "inputs": [],
      "name": "snapshot",
      "outputs": [],
      "stateMutability": "nonpayable",
      "type": "function"
    },
    {
      "inputs": [],
      "name": "pause",
      "outputs": [],
      "stateMutability": "nonpayable",
      "type": "function"
    },
    {
      "inputs": [],
      "name": "unpause",
      "outputs": [],
      "stateMutability": "nonpayable",
      "type": "function"
    },
    {
      "inputs": [
        {
          "internalType": "address",
          "name": "to",
          "type": "address"
        },
        {
          "internalType": "uint256",
          "name": "amount",
          "type": "uint256"
        }
      ],
      "name": "mint",
      "outputs": [],
      "stateMutability": "nonpayable",
      "type": "function"
    }
  ],
  "bytecode": "0x6101406040523480156200001257600080fd5b506040518060400160405280600981526020017f4f6e6c79546f6b656e0000000000000000000000000000000000000000000000815250806040518060400160405280600181526020017f31000000000000000000000000000000000000000000000000000000000000008152506040518060400160405280600981526020017f4f6e6c79546f6b656e00000000000000000000000000000000000000000000008152506040518060400160405280600381526020017f4d544b00000000000000000000000000000000000000000000000000000000008152508160039081620000fd91906200058a565b5080600490816200010f91906200058a565b50505062000132620001266200020660201b60201c565b6200020e60201b60201c565b6000600960146101000a81548160ff02191690831515021790555060008280519060200120905060008280519060200120905060007f8b73c3c69bb8fe3d512ecc4cf759cc79239f7b179b0ffacaa9a75d522b39400f90508260e081815250508161010081815250504660a08181525050620001b6818484620002d460201b60201c565b608081815250503073ffffffffffffffffffffffffffffffffffffffff1660c08173ffffffffffffffffffffffffffffffffffffffff16815250508061012081815250505050505050506200073f565b600033905090565b6000600960009054906101000a900473ffffffffffffffffffffffffffffffffffffffff16905081600960006101000a81548173ffffffffffffffffffffffffffffffffffffffff021916908373ffffffffffffffffffffffffffffffffffffffff1602179055508173ffffffffffffffffffffffffffffffffffffffff168173ffffffffffffffffffffffffffffffffffffffff167f8be0079c531659141344cd1fd0a4f28419497f9722a3daafe3b4186f6b6457e060405160405180910390a35050565b60008383834630604051602001620002f1959493929190620006e2565b6040516020818303038152906040528051906020012090509392505050565b600081519050919050565b7f4e487b7100000000000000000000000000000000000000000000000000000000600052604160045260246000fd5b7f4e487b7100000000000000000000000000000000000000000000000000000000600052602260045260246000fd5b600060028204905060018216806200039257607f821691505b602082108103620003a857620003a76200034a565b5b50919050565b60008190508160005260206000209050919050565b60006020601f8301049050919050565b600082821b905092915050565b600060088302620004127fffffffffffffffffffffffffffffffffffffffffffffffffffffffffffffffff82620003d3565b6200041e8683620003d3565b95508019841693508086168417925050509392505050565b6000819050919050565b6000819050919050565b60006200046b620004656200045f8462000436565b62000440565b62000436565b9050919050565b6000819050919050565b62000487836200044a565b6200049f620004968262000472565b848454620003e0565b825550505050565b600090565b620004b6620004a7565b620004c38184846200047c565b505050565b5b81811015620004eb57620004df600082620004ac565b600181019050620004c9565b5050565b601f8211156200053a576200050481620003ae565b6200050f84620003c3565b810160208510156200051f578190505b620005376200052e85620003c3565b830182620004c8565b50505b505050565b600082821c905092915050565b60006200055f600019846008026200053f565b1980831691505092915050565b60006200057a83836200054c565b9150826002028217905092915050565b620005958262000310565b67ffffffffffffffff811115620005b157620005b06200031b565b5b620005bd825462000379565b620005ca828285620004ef565b600060209050601f831160018114620006025760008415620005ed578287015190505b620005f985826200056c565b86555062000669565b601f1984166200061286620003ae565b60005b828110156200063c5784890151825560018201915060208501945060208101905062000615565b868310156200065c578489015162000658601f8916826200054c565b8355505b6001600288020188555050505b505050505050565b6000819050919050565b620006868162000671565b82525050565b620006978162000436565b82525050565b600073ffffffffffffffffffffffffffffffffffffffff82169050919050565b6000620006ca826200069d565b9050919050565b620006dc81620006bd565b82525050565b600060a082019050620006f960008301886200067b565b6200070860208301876200067b565b6200071760408301866200067b565b6200072660608301856200068c565b620007356080830184620006d1565b9695505050505050565b60805160a05160c05160e05161010051610120516133036200078f600039600061114701526000611189015260006111680152600061109d015260006110f30152600061111c01526133036000f3fe608060405234801561001057600080fd5b506004361061018e5760003560e01c8063715018a6116100de5780639711715a11610097578063a9059cbb11610071578063a9059cbb14610461578063d505accf14610491578063dd62ed3e146104ad578063f2fde38b146104dd5761018e565b80639711715a146103f7578063981b24d014610401578063a457c2d7146104315761018e565b8063715018a61461035b57806379cc6790146103655780637ecebe00146103815780638456cb59146103b15780638da5cb5b146103bb57806395d89b41146103d95761018e565b8063395093511161014b57806342966c681161012557806342966c68146102c15780634ee2cd7e146102dd5780635c975abb1461030d57806370a082311461032b5761018e565b8063395093511461026b5780633f4ba83a1461029b57806340c10f19146102a55761018e565b806306fdde0314610193578063095ea7b3146101b157806318160ddd146101e157806323b872dd146101ff578063313ce5671461022f5780633644e5151461024d575b600080fd5b61019b6104f9565b6040516101a8919061208d565b60405180910390f35b6101cb60048036038101906101c69190612148565b61058b565b6040516101d891906121a3565b60405180910390f35b6101e96105ae565b6040516101f691906121cd565b60405180910390f35b610219600480360381019061021491906121e8565b6105b8565b60405161022691906121a3565b60405180910390f35b6102376105e7565b6040516102449190612257565b60405180910390f35b6102556105f0565b604051610262919061228b565b60405180910390f35b61028560048036038101906102809190612148565b6105ff565b60405161029291906121a3565b60405180910390f35b6102a3610636565b005b6102bf60048036038101906102ba9190612148565b610648565b005b6102db60048036038101906102d691906122a6565b61065e565b005b6102f760048036038101906102f29190612148565b610672565b60405161030491906121cd565b60405180910390f35b6103156106e2565b60405161032291906121a3565b60405180910390f35b610345600480360381019061034091906122d3565b6106f9565b60405161035291906121cd565b60405180910390f35b610363610741565b005b61037f600480360381019061037a9190612148565b610755565b005b61039b600480360381019061039691906122d3565b610775565b6040516103a891906121cd565b60405180910390f35b6103b96107c5565b005b6103c36107d7565b6040516103d0919061230f565b60405180910390f35b6103e1610801565b6040516103ee919061208d565b60405180910390f35b6103ff610893565b005b61041b600480360381019061041691906122a6565b6108a6565b60405161042891906121cd565b60405180910390f35b61044b60048036038101906104469190612148565b6108d7565b60405161045891906121a3565b60405180910390f35b61047b60048036038101906104769190612148565b61094e565b60405161048891906121a3565b60405180910390f35b6104ab60048036038101906104a69190612382565b610971565b005b6104c760048036038101906104c29190612424565b610ab3565b6040516104d491906121cd565b60405180910390f35b6104f760048036038101906104f291906122d3565b610b3a565b005b60606003805461050890612493565b80601f016020809104026020016040519081016040528092919081815260200182805461053490612493565b80156105815780601f1061055657610100808354040283529160200191610581565b820191906000526020600020905b81548152906001019060200180831161056457829003601f168201915b5050505050905090565b600080610596610bbd565b90506105a3818585610bc5565b600191505092915050565b6000600254905090565b6000806105c3610bbd565b90506105d0858285610d8e565b6105db858585610e1a565b60019150509392505050565b60006012905090565b60006105fa611099565b905090565b60008061060a610bbd565b905061062b81858561061c8589610ab3565b61062691906124f3565b610bc5565b600191505092915050565b61063e6111b3565b610646611231565b565b6106506111b3565b61065a8282611294565b5050565b61066f610669610bbd565b826113f3565b50565b60008060006106bf84600560008873ffffffffffffffffffffffffffffffffffffffff1673ffffffffffffffffffffffffffffffffffffffff1681526020019081526020016000206115c9565b91509150816106d6576106d1856106f9565b6106d8565b805b9250505092915050565b6000600960149054906101000a900460ff16905090565b60008060008373ffffffffffffffffffffffffffffffffffffffff1673ffffffffffffffffffffffffffffffffffffffff168152602001908152602001600020549050919050565b6107496111b3565b61075360006116be565b565b61076782610761610bbd565b83610d8e565b61077182826113f3565b5050565b60006107be600a60008473ffffffffffffffffffffffffffffffffffffffff1673ffffffffffffffffffffffffffffffffffffffff168152602001908152602001600020611784565b9050919050565b6107cd6111b3565b6107d5611792565b565b6000600960009054906101000a900473ffffffffffffffffffffffffffffffffffffffff16905090565b60606004805461081090612493565b80601f016020809104026020016040519081016040528092919081815260200182805461083c90612493565b80156108895780601f1061085e57610100808354040283529160200191610889565b820191906000526020600020905b81548152906001019060200180831161086c57829003601f168201915b5050505050905090565b61089b6111b3565b6108a36117f5565b50565b60008060006108b68460066115c9565b91509150816108cc576108c76105ae565b6108ce565b805b92505050919050565b6000806108e2610bbd565b905060006108f08286610ab3565b905083811015610935576040517f08c379a000000000000000000000000000000000000000000000000000000000815260040161092c906125bb565b60405180910390fd5b6109428286868403610bc5565b60019250505092915050565b600080610959610bbd565b9050610966818585610e1a565b600191505092915050565b834211156109b4576040517f08c379a00000000000000000000000000000000000000000000000000000000081526004016109ab90612627565b60405180910390fd5b60007f6e71edae12b1b97f4d1f60370fef10105fa2faae0126114a169c64845d6126c98888886109e38c61184b565b896040516020016109f996959493929190612647565b6040516020818303038152906040528051906020012090506000610a1c826118a9565b90506000610a2c828787876118c3565b90508973ffffffffffffffffffffffffffffffffffffffff168173ffffffffffffffffffffffffffffffffffffffff1614610a9c576040517f08c379a0000000000000000000000000000000000000000000000000000000008152600401610a93906126f4565b60405180910390fd5b610aa78a8a8a610bc5565b50505050505050505050565b6000600160008473ffffffffffffffffffffffffffffffffffffffff1673ffffffffffffffffffffffffffffffffffffffff16815260200190815260200160002060008373ffffffffffffffffffffffffffffffffffffffff1673ffffffffffffffffffffffffffffffffffffffff16815260200190815260200160002054905092915050565b610b426111b3565b600073ffffffffffffffffffffffffffffffffffffffff168173ffffffffffffffffffffffffffffffffffffffff1603610bb1576040517f08c379a0000000000000000000000000000000000000000000000000000000008152600401610ba890612786565b60405180910390fd5b610bba816116be565b50565b600033905090565b600073ffffffffffffffffffffffffffffffffffffffff168373ffffffffffffffffffffffffffffffffffffffff1603610c34576040517f08c379a0000000000000000000000000000000000000000000000000000000008152600401610c2b90612818565b60405180910390fd5b600073ffffffffffffffffffffffffffffffffffffffff168273ffffffffffffffffffffffffffffffffffffffff1603610ca3576040517f08c379a0000000000000000000000000000000000000000000000000000000008152600401610c9a906128aa565b60405180910390fd5b80600160008573ffffffffffffffffffffffffffffffffffffffff1673ffffffffffffffffffffffffffffffffffffffff16815260200190815260200160002060008473ffffffffffffffffffffffffffffffffffffffff1673ffffffffffffffffffffffffffffffffffffffff168152602001908152602001600020819055508173ffffffffffffffffffffffffffffffffffffffff168373ffffffffffffffffffffffffffffffffffffffff167f8c5be1e5ebec7d5bd14f71427d1e84f3dd0314c0f7b2291e5b200ac8c7c3b92583604051610d8191906121cd565b60405180910390a3505050565b6000610d9a8484610ab3565b90507fffffffffffffffffffffffffffffffffffffffffffffffffffffffffffffffff8114610e145781811015610e06576040517f08c379a0000000000000000000000000000000000000000000000000000000008152600401610dfd90612916565b60405180910390fd5b610e138484848403610bc5565b5b50505050565b600073ffffffffffffffffffffffffffffffffffffffff168373ffffffffffffffffffffffffffffffffffffffff1603610e89576040517f08c379a0000000000000000000000000000000000000000000000000000000008152600401610e80906129a8565b60405180910390fd5b600073ffffffffffffffffffffffffffffffffffffffff168273ffffffffffffffffffffffffffffffffffffffff1603610ef8576040517f08c379a0000000000000000000000000000000000000000000000000000000008152600401610eef90612a3a565b60405180910390fd5b610f038383836118ee565b60008060008573ffffffffffffffffffffffffffffffffffffffff1673ffffffffffffffffffffffffffffffffffffffff16815260200190815260200160002054905081811015610f89576040517f08c379a0000000000000000000000000000000000000000000000000000000008152600401610f8090612acc565b60405180910390fd5b8181036000808673ffffffffffffffffffffffffffffffffffffffff1673ffffffffffffffffffffffffffffffffffffffff16815260200190815260200160002081905550816000808573ffffffffffffffffffffffffffffffffffffffff1673ffffffffffffffffffffffffffffffffffffffff168152602001908152602001600020600082825461101c91906124f3565b925050819055508273ffffffffffffffffffffffffffffffffffffffff168473ffffffffffffffffffffffffffffffffffffffff167fddf252ad1be2c89b69c2b068fc378daa952ba7f163c4a11628f55a4df523b3ef8460405161108091906121cd565b60405180910390a3611093848484611906565b50505050565b60007f000000000000000000000000000000000000000000000000000000000000000073ffffffffffffffffffffffffffffffffffffffff163073ffffffffffffffffffffffffffffffffffffffff1614801561111557507f000000000000000000000000000000000000000000000000000000000000000046145b15611142577f000000000000000000000000000000000000000000000000000000000000000090506111b0565b6111ad7f00000000000000000000000000000000000000000000000000000000000000007f00000000000000000000000000000000000000000000000000000000000000007f000000000000000000000000000000000000000000000000000000000000000061190b565b90505b90565b6111bb610bbd565b73ffffffffffffffffffffffffffffffffffffffff166111d96107d7565b73ffffffffffffffffffffffffffffffffffffffff161461122f576040517f08c379a000000000000000000000000000000000000000000000000000000000815260040161122690612b38565b60405180910390fd5b565b611239611945565b6000600960146101000a81548160ff0219169083151502179055507f5db9ee0a495bf2e6ff9c91a7834c1ba4fdd244a5e8aa4e537bd38aeae4b073aa61127d610bbd565b60405161128a919061230f565b60405180910390a1565b600073ffffffffffffffffffffffffffffffffffffffff168273ffffffffffffffffffffffffffffffffffffffff1603611303576040517f08c379a00000000000000000000000000000000000000000000000000000000081526004016112fa90612ba4565b60405180910390fd5b61130f600083836118ee565b806002600082825461132191906124f3565b92505081905550806000808473ffffffffffffffffffffffffffffffffffffffff1673ffffffffffffffffffffffffffffffffffffffff168152602001908152602001600020600082825461137691906124f3565b925050819055508173ffffffffffffffffffffffffffffffffffffffff16600073ffffffffffffffffffffffffffffffffffffffff167fddf252ad1be2c89b69c2b068fc378daa952ba7f163c4a11628f55a4df523b3ef836040516113db91906121cd565b60405180910390a36113ef60008383611906565b5050565b600073ffffffffffffffffffffffffffffffffffffffff168273ffffffffffffffffffffffffffffffffffffffff1603611462576040517f08c379a000000000000000000000000000000000000000000000000000000000815260040161145990612c36565b60405180910390fd5b61146e826000836118ee565b60008060008473ffffffffffffffffffffffffffffffffffffffff1673ffffffffffffffffffffffffffffffffffffffff168152602001908152602001600020549050818110156114f4576040517f08c379a00000000000000000000000000000000000000000000000000000000081526004016114eb90612cc8565b60405180910390fd5b8181036000808573ffffffffffffffffffffffffffffffffffffffff1673ffffffffffffffffffffffffffffffffffffffff16815260200190815260200160002081905550816002600082825461154b9190612ce8565b92505081905550600073ffffffffffffffffffffffffffffffffffffffff168373ffffffffffffffffffffffffffffffffffffffff167fddf252ad1be2c89b69c2b068fc378daa952ba7f163c4a11628f55a4df523b3ef846040516115b091906121cd565b60405180910390a36115c483600084611906565b505050565b6000806000841161160f576040517f08c379a000000000000000000000000000000000000000000000000000000000815260040161160690612d68565b60405180910390fd5b61161761198e565b841115611659576040517f08c379a000000000000000000000000000000000000000000000000000000000815260040161165090612dd4565b60405180910390fd5b6000611671858560000161199f90919063ffffffff16565b90508360000180549050810361168e5760008092509250506116b7565b60018460010182815481106116a6576116a5612df4565b5b906000526020600020015492509250505b9250929050565b6000600960009054906101000a900473ffffffffffffffffffffffffffffffffffffffff16905081600960006101000a81548173ffffffffffffffffffffffffffffffffffffffff021916908373ffffffffffffffffffffffffffffffffffffffff1602179055508173ffffffffffffffffffffffffffffffffffffffff168173ffffffffffffffffffffffffffffffffffffffff167f8be0079c531659141344cd1fd0a4f28419497f9722a3daafe3b4186f6b6457e060405160405180910390a35050565b600081600001549050919050565b61179a611a78565b6001600960146101000a81548160ff0219169083151502179055507f62e78cea01bee320cd4e420270b5ea74000d11b0c9f74754ebdbfc544b05a2586117de610bbd565b6040516117eb919061230f565b60405180910390a1565b60006118016008611ac2565b600061180b61198e565b90507f8030e83b04d87bef53480e26263266d6ca66863aa8506aca6f2559d18aa1cb678160405161183c91906121cd565b60405180910390a18091505090565b600080600a60008473ffffffffffffffffffffffffffffffffffffffff1673ffffffffffffffffffffffffffffffffffffffff168152602001908152602001600020905061189881611784565b91506118a381611ac2565b50919050565b60006118bc6118b6611099565b83611ad8565b9050919050565b60008060006118d487878787611b0b565b915091506118e181611c17565b8192505050949350505050565b6118f6611a78565b611901838383611de3565b505050565b505050565b60008383834630604051602001611926959493929190612e23565b6040516020818303038152906040528051906020012090509392505050565b61194d6106e2565b61198c576040517f08c379a000000000000000000000000000000000000000000000000000000000815260040161198390612ec2565b60405180910390fd5b565b600061199a6008611784565b905090565b6000808380549050036119b55760009050611a72565b600080848054905090505b80821015611a195760006119d48383611e9b565b9050848682815481106119ea576119e9612df4565b5b90600052602060002001541115611a0357809150611a13565b600181611a1091906124f3565b92505b506119c0565b600082118015611a5157508385600184611a339190612ce8565b81548110611a4457611a43612df4565b5b9060005260206000200154145b15611a6c57600182611a639190612ce8565b92505050611a72565b81925050505b92915050565b611a806106e2565b15611ac0576040517f08c379a0000000000000000000000000000000000000000000000000000000008152600401611ab790612f2e565b60405180910390fd5b565b6001816000016000828254019250508190555050565b60008282604051602001611aed929190612fc6565b60405160208183030381529060405280519060200120905092915050565b6000807f7fffffffffffffffffffffffffffffff5d576e7357a4501ddfe92f46681b20a08360001c1115611b46576000600391509150611c0e565b601b8560ff1614158015611b5e5750601c8560ff1614155b15611b70576000600491509150611c0e565b600060018787878760405160008152602001604052604051611b959493929190612ffd565b6020604051602081039080840390855afa158015611bb7573d6000803e3d6000fd5b505050602060405103519050600073ffffffffffffffffffffffffffffffffffffffff168173ffffffffffffffffffffffffffffffffffffffff1603611c0557600060019250925050611c0e565b80600092509250505b94509492505050565b60006004811115611c2b57611c2a613042565b5b816004811115611c3e57611c3d613042565b5b0315611de05760016004811115611c5857611c57613042565b5b816004811115611c6b57611c6a613042565b5b03611cab576040517f08c379a0000000000000000000000000000000000000000000000000000000008152600401611ca2906130bd565b60405180910390fd5b60026004811115611cbf57611cbe613042565b5b816004811115611cd257611cd1613042565b5b03611d12576040517f08c379a0000000000000000000000000000000000000000000000000000000008152600401611d0990613129565b60405180910390fd5b60036004811115611d2657611d25613042565b5b816004811115611d3957611d38613042565b5b03611d79576040517f08c379a0000000000000000000000000000000000000000000000000000000008152600401611d70906131bb565b60405180910390fd5b600480811115611d8c57611d8b613042565b5b816004811115611d9f57611d9e613042565b5b03611ddf576040517f08c379a0000000000000000000000000000000000000000000000000000000008152600401611dd69061324d565b60405180910390fd5b5b50565b611dee838383611ec1565b600073ffffffffffffffffffffffffffffffffffffffff168373ffffffffffffffffffffffffffffffffffffffff1603611e3857611e2b82611ec6565b611e33611f19565b611e96565b600073ffffffffffffffffffffffffffffffffffffffff168273ffffffffffffffffffffffffffffffffffffffff1603611e8257611e7583611ec6565b611e7d611f19565b611e95565b611e8b83611ec6565b611e9482611ec6565b5b5b505050565b60006002828418611eac919061329c565b828416611eb991906124f3565b905092915050565b505050565b611f16600560008373ffffffffffffffffffffffffffffffffffffffff1673ffffffffffffffffffffffffffffffffffffffff168152602001908152602001600020611f11836106f9565b611f2d565b50565b611f2b6006611f266105ae565b611f2d565b565b6000611f3761198e565b905080611f4684600001611fa8565b1015611fa35782600001819080600181540180825580915050600190039060005260206000200160009091909190915055826001018290806001815401808255809150506001900390600052602060002001600090919091909150555b505050565b600080828054905003611fbe5760009050611fef565b8160018380549050611fd09190612ce8565b81548110611fe157611fe0612df4565b5b906000526020600020015490505b919050565b600081519050919050565b600082825260208201905092915050565b60005b8381101561202e578082015181840152602081019050612013565b8381111561203d576000848401525b50505050565b6000601f19601f8301169050919050565b600061205f82611ff4565b6120698185611fff565b9350612079818560208601612010565b61208281612043565b840191505092915050565b600060208201905081810360008301526120a78184612054565b905092915050565b600080fd5b600073ffffffffffffffffffffffffffffffffffffffff82169050919050565b60006120df826120b4565b9050919050565b6120ef816120d4565b81146120fa57600080fd5b50565b60008135905061210c816120e6565b92915050565b6000819050919050565b61212581612112565b811461213057600080fd5b50565b6000813590506121428161211c565b92915050565b6000806040838503121561215f5761215e6120af565b5b600061216d858286016120fd565b925050602061217e85828601612133565b9150509250929050565b60008115159050919050565b61219d81612188565b82525050565b60006020820190506121b86000830184612194565b92915050565b6121c781612112565b82525050565b60006020820190506121e260008301846121be565b92915050565b600080600060608486031215612201576122006120af565b5b600061220f868287016120fd565b9350506020612220868287016120fd565b925050604061223186828701612133565b9150509250925092565b600060ff82169050919050565b6122518161223b565b82525050565b600060208201905061226c6000830184612248565b92915050565b6000819050919050565b61228581612272565b82525050565b60006020820190506122a0600083018461227c565b92915050565b6000602082840312156122bc576122bb6120af565b5b60006122ca84828501612133565b91505092915050565b6000602082840312156122e9576122e86120af565b5b60006122f7848285016120fd565b91505092915050565b612309816120d4565b82525050565b60006020820190506123246000830184612300565b92915050565b6123338161223b565b811461233e57600080fd5b50565b6000813590506123508161232a565b92915050565b61235f81612272565b811461236a57600080fd5b50565b60008135905061237c81612356565b92915050565b600080600080600080600060e0888a0312156123a1576123a06120af565b5b60006123af8a828b016120fd565b97505060206123c08a828b016120fd565b96505060406123d18a828b01612133565b95505060606123e28a828b01612133565b94505060806123f38a828b01612341565b93505060a06124048a828b0161236d565b92505060c06124158a828b0161236d565b91505092959891949750929550565b6000806040838503121561243b5761243a6120af565b5b6000612449858286016120fd565b925050602061245a858286016120fd565b9150509250929050565b7f4e487b7100000000000000000000000000000000000000000000000000000000600052602260045260246000fd5b600060028204905060018216806124ab57607f821691505b6020821081036124be576124bd612464565b5b50919050565b7f4e487b7100000000000000000000000000000000000000000000000000000000600052601160045260246000fd5b60006124fe82612112565b915061250983612112565b9250827fffffffffffffffffffffffffffffffffffffffffffffffffffffffffffffffff0382111561253e5761253d6124c4565b5b828201905092915050565b7f45524332303a2064656372656173656420616c6c6f77616e63652062656c6f7760008201527f207a65726f000000000000000000000000000000000000000000000000000000602082015250565b60006125a5602583611fff565b91506125b082612549565b604082019050919050565b600060208201905081810360008301526125d481612598565b9050919050565b7f45524332305065726d69743a206578706972656420646561646c696e65000000600082015250565b6000612611601d83611fff565b915061261c826125db565b602082019050919050565b6000602082019050818103600083015261264081612604565b9050919050565b600060c08201905061265c600083018961227c565b6126696020830188612300565b6126766040830187612300565b61268360608301866121be565b61269060808301856121be565b61269d60a08301846121be565b979650505050505050565b7f45524332305065726d69743a20696e76616c6964207369676e61747572650000600082015250565b60006126de601e83611fff565b91506126e9826126a8565b602082019050919050565b6000602082019050818103600083015261270d816126d1565b9050919050565b7f4f776e61626c653a206e6577206f776e657220697320746865207a65726f206160008201527f6464726573730000000000000000000000000000000000000000000000000000602082015250565b6000612770602683611fff565b915061277b82612714565b604082019050919050565b6000602082019050818103600083015261279f81612763565b9050919050565b7f45524332303a20617070726f76652066726f6d20746865207a65726f2061646460008201527f7265737300000000000000000000000000000000000000000000000000000000602082015250565b6000612802602483611fff565b915061280d826127a6565b604082019050919050565b60006020820190508181036000830152612831816127f5565b9050919050565b7f45524332303a20617070726f766520746f20746865207a65726f20616464726560008201527f7373000000000000000000000000000000000000000000000000000000000000602082015250565b6000612894602283611fff565b915061289f82612838565b604082019050919050565b600060208201905081810360008301526128c381612887565b9050919050565b7f45524332303a20696e73756666696369656e7420616c6c6f77616e6365000000600082015250565b6000612900601d83611fff565b915061290b826128ca565b602082019050919050565b6000602082019050818103600083015261292f816128f3565b9050919050565b7f45524332303a207472616e736665722066726f6d20746865207a65726f20616460008201527f6472657373000000000000000000000000000000000000000000000000000000602082015250565b6000612992602583611fff565b915061299d82612936565b604082019050919050565b600060208201905081810360008301526129c181612985565b9050919050565b7f45524332303a207472616e7366657220746f20746865207a65726f206164647260008201527f6573730000000000000000000000000000000000000000000000000000000000602082015250565b6000612a24602383611fff565b9150612a2f826129c8565b604082019050919050565b60006020820190508181036000830152612a5381612a17565b9050919050565b7f45524332303a207472616e7366657220616d6f756e742065786365656473206260008201527f616c616e63650000000000000000000000000000000000000000000000000000602082015250565b6000612ab6602683611fff565b9150612ac182612a5a565b604082019050919050565b60006020820190508181036000830152612ae581612aa9565b9050919050565b7f4f776e61626c653a2063616c6c6572206973206e6f7420746865206f776e6572600082015250565b6000612b22602083611fff565b9150612b2d82612aec565b602082019050919050565b60006020820190508181036000830152612b5181612b15565b9050919050565b7f45524332303a206d696e7420746f20746865207a65726f206164647265737300600082015250565b6000612b8e601f83611fff565b9150612b9982612b58565b602082019050919050565b60006020820190508181036000830152612bbd81612b81565b9050919050565b7f45524332303a206275726e2066726f6d20746865207a65726f2061646472657360008201527f7300000000000000000000000000000000000000000000000000000000000000602082015250565b6000612c20602183611fff565b9150612c2b82612bc4565b604082019050919050565b60006020820190508181036000830152612c4f81612c13565b9050919050565b7f45524332303a206275726e20616d6f756e7420657863656564732062616c616e60008201527f6365000000000000000000000000000000000000000000000000000000000000602082015250565b6000612cb2602283611fff565b9150612cbd82612c56565b604082019050919050565b60006020820190508181036000830152612ce181612ca5565b9050919050565b6000612cf382612112565b9150612cfe83612112565b925082821015612d1157612d106124c4565b5b828203905092915050565b7f4552433230536e617073686f743a206964206973203000000000000000000000600082015250565b6000612d52601683611fff565b9150612d5d82612d1c565b602082019050919050565b60006020820190508181036000830152612d8181612d45565b9050919050565b7f4552433230536e617073686f743a206e6f6e6578697374656e74206964000000600082015250565b6000612dbe601d83611fff565b9150612dc982612d88565b602082019050919050565b60006020820190508181036000830152612ded81612db1565b9050919050565b7f4e487b7100000000000000000000000000000000000000000000000000000000600052603260045260246000fd5b600060a082019050612e38600083018861227c565b612e45602083018761227c565b612e52604083018661227c565b612e5f60608301856121be565b612e6c6080830184612300565b9695505050505050565b7f5061757361626c653a206e6f7420706175736564000000000000000000000000600082015250565b6000612eac601483611fff565b9150612eb782612e76565b602082019050919050565b60006020820190508181036000830152612edb81612e9f565b9050919050565b7f5061757361626c653a2070617573656400000000000000000000000000000000600082015250565b6000612f18601083611fff565b9150612f2382612ee2565b602082019050919050565b60006020820190508181036000830152612f4781612f0b565b9050919050565b600081905092915050565b7f1901000000000000000000000000000000000000000000000000000000000000600082015250565b6000612f8f600283612f4e565b9150612f9a82612f59565b600282019050919050565b6000819050919050565b612fc0612fbb82612272565b612fa5565b82525050565b6000612fd182612f82565b9150612fdd8285612faf565b602082019150612fed8284612faf565b6020820191508190509392505050565b6000608082019050613012600083018761227c565b61301f6020830186612248565b61302c604083018561227c565b613039606083018461227c565b95945050505050565b7f4e487b7100000000000000000000000000000000000000000000000000000000600052602160045260246000fd5b7f45434453413a20696e76616c6964207369676e61747572650000000000000000600082015250565b60006130a7601883611fff565b91506130b282613071565b602082019050919050565b600060208201905081810360008301526130d68161309a565b9050919050565b7f45434453413a20696e76616c6964207369676e6174757265206c656e67746800600082015250565b6000613113601f83611fff565b915061311e826130dd565b602082019050919050565b6000602082019050818103600083015261314281613106565b9050919050565b7f45434453413a20696e76616c6964207369676e6174757265202773272076616c60008201527f7565000000000000000000000000000000000000000000000000000000000000602082015250565b60006131a5602283611fff565b91506131b082613149565b604082019050919050565b600060208201905081810360008301526131d481613198565b9050919050565b7f45434453413a20696e76616c6964207369676e6174757265202776272076616c60008201527f7565000000000000000000000000000000000000000000000000000000000000602082015250565b6000613237602283611fff565b9150613242826131db565b604082019050919050565b600060208201905081810360008301526132668161322a565b9050919050565b7f4e487b7100000000000000000000000000000000000000000000000000000000600052601260045260246000fd5b60006132a782612112565b91506132b283612112565b9250826132c2576132c161326d565b5b82820490509291505056fea26469706673582212207e74b976ce60723c20e525e85a3b18881db1f3be535dd11be6789d526127a90d64736f6c634300080f0033",
  "immutableReferences": {
    "2309": [
      {
        "length": 32,
        "start": 4380
      }
    ],
    "2311": [
      {
        "length": 32,
        "start": 4339
      }
    ],
    "2313": [
      {
        "length": 32,
        "start": 4253
      }
    ],
    "2315": [
      {
        "length": 32,
        "start": 4456
      }
    ],
    "2317": [
      {
        "length": 32,
        "start": 4489
      }
    ],
    "2319": [
      {
        "length": 32,
        "start": 4423
      }
    ]
  },
  "source": "// SPDX-License-Identifier: MIT\r\npragma solidity ^0.8.4;\r\n\r\nimport \"@openzeppelin/contracts/token/ERC20/ERC20.sol\";\r\nimport \"@openzeppelin/contracts/token/ERC20/extensions/ERC20Burnable.sol\";\r\nimport \"@openzeppelin/contracts/token/ERC20/extensions/ERC20Snapshot.sol\";\r\nimport \"@openzeppelin/contracts/access/Ownable.sol\";\r\nimport \"@openzeppelin/contracts/security/Pausable.sol\";\r\nimport \"@openzeppelin/contracts/token/ERC20/extensions/draft-ERC20Permit.sol\";\r\n\r\ncontract MyToken is ERC20, ERC20Burnable, ERC20Snapshot, Ownable, Pausable, ERC20Permit {\r\n    constructor() ERC20(\"OnlyToken\", \"MTK\") ERC20Permit(\"OnlyToken\") {}\r\n\r\n    function snapshot() public onlyOwner {\r\n        _snapshot();\r\n    }\r\n\r\n    function pause() public onlyOwner {\r\n        _pause();\r\n    }\r\n\r\n    function unpause() public onlyOwner {\r\n        _unpause();\r\n    }\r\n\r\n    function mint(address to, uint256 amount) public onlyOwner {\r\n        _mint(to, amount);\r\n    }\r\n\r\n    function _beforeTokenTransfer(address from, address to, uint256 amount)\r\n        internal\r\n        whenNotPaused\r\n        override(ERC20, ERC20Snapshot)\r\n    {\r\n        super._beforeTokenTransfer(from, to, amount);\r\n    }\r\n}",
  "sourcePath": "C:\\Users\\Acer\\Dropbox\\PC\\Desktop\\Hackathon Project\\OnlyTokens\\src\\contracts\\DaiTokenMock.sol",
  "compiler": {
    "name": "solc",
    "version": "0.8.15+commit.e14f2714.Emscripten.clang"
  },
  "schemaVersion": "3.4.8",
  "updatedAt": "2022-08-08T15:13:39.862Z",
  "devdoc": {
    "kind": "dev",
    "methods": {
      "DOMAIN_SEPARATOR()": {
        "details": "See {IERC20Permit-DOMAIN_SEPARATOR}."
      },
      "allowance(address,address)": {
        "details": "See {IERC20-allowance}."
      },
      "approve(address,uint256)": {
        "details": "See {IERC20-approve}. NOTE: If `amount` is the maximum `uint256`, the allowance is not updated on `transferFrom`. This is semantically equivalent to an infinite approval. Requirements: - `spender` cannot be the zero address."
      },
      "balanceOf(address)": {
        "details": "See {IERC20-balanceOf}."
      },
      "balanceOfAt(address,uint256)": {
        "details": "Retrieves the balance of `account` at the time `snapshotId` was created."
      },
      "burn(uint256)": {
        "details": "Destroys `amount` tokens from the caller. See {ERC20-_burn}."
      },
      "burnFrom(address,uint256)": {
        "details": "Destroys `amount` tokens from `account`, deducting from the caller's allowance. See {ERC20-_burn} and {ERC20-allowance}. Requirements: - the caller must have allowance for ``accounts``'s tokens of at least `amount`."
      },
      "decimals()": {
        "details": "Returns the number of decimals used to get its user representation. For example, if `decimals` equals `2`, a balance of `505` tokens should be displayed to a user as `5.05` (`505 / 10 ** 2`). Tokens usually opt for a value of 18, imitating the relationship between Ether and Wei. This is the value {ERC20} uses, unless this function is overridden; NOTE: This information is only used for _display_ purposes: it in no way affects any of the arithmetic of the contract, including {IERC20-balanceOf} and {IERC20-transfer}."
      },
      "decreaseAllowance(address,uint256)": {
        "details": "Atomically decreases the allowance granted to `spender` by the caller. This is an alternative to {approve} that can be used as a mitigation for problems described in {IERC20-approve}. Emits an {Approval} event indicating the updated allowance. Requirements: - `spender` cannot be the zero address. - `spender` must have allowance for the caller of at least `subtractedValue`."
      },
      "increaseAllowance(address,uint256)": {
        "details": "Atomically increases the allowance granted to `spender` by the caller. This is an alternative to {approve} that can be used as a mitigation for problems described in {IERC20-approve}. Emits an {Approval} event indicating the updated allowance. Requirements: - `spender` cannot be the zero address."
      },
      "name()": {
        "details": "Returns the name of the token."
      },
      "nonces(address)": {
        "details": "See {IERC20Permit-nonces}."
      },
      "owner()": {
        "details": "Returns the address of the current owner."
      },
      "paused()": {
        "details": "Returns true if the contract is paused, and false otherwise."
      },
      "permit(address,address,uint256,uint256,uint8,bytes32,bytes32)": {
        "details": "See {IERC20Permit-permit}."
      },
      "renounceOwnership()": {
        "details": "Leaves the contract without owner. It will not be possible to call `onlyOwner` functions anymore. Can only be called by the current owner. NOTE: Renouncing ownership will leave the contract without an owner, thereby removing any functionality that is only available to the owner."
      },
      "symbol()": {
        "details": "Returns the symbol of the token, usually a shorter version of the name."
      },
      "totalSupply()": {
        "details": "See {IERC20-totalSupply}."
      },
      "totalSupplyAt(uint256)": {
        "details": "Retrieves the total supply at the time `snapshotId` was created."
      },
      "transfer(address,uint256)": {
        "details": "See {IERC20-transfer}. Requirements: - `to` cannot be the zero address. - the caller must have a balance of at least `amount`."
      },
      "transferFrom(address,address,uint256)": {
        "details": "See {IERC20-transferFrom}. Emits an {Approval} event indicating the updated allowance. This is not required by the EIP. See the note at the beginning of {ERC20}. NOTE: Does not update the allowance if the current allowance is the maximum `uint256`. Requirements: - `from` and `to` cannot be the zero address. - `from` must have a balance of at least `amount`. - the caller must have allowance for ``from``'s tokens of at least `amount`."
      },
      "transferOwnership(address)": {
        "details": "Transfers ownership of the contract to a new account (`newOwner`). Can only be called by the current owner."
      }
    },
    "version": 1
  },
  "userdoc": {
    "kind": "user",
    "methods": {},
    "version": 1
  }
}