{
  "contractName": "RecurringPayments",
  "abi": [
    {
      "inputs": [],
      "stateMutability": "nonpayable",
      "type": "constructor"
    },
    {
      "anonymous": false,
      "inputs": [
        {
          "indexed": false,
          "internalType": "address",
          "name": "Customer",
          "type": "address"
        },
        {
          "indexed": false,
          "internalType": "address",
          "name": "Payee",
          "type": "address"
        },
        {
          "indexed": false,
          "internalType": "uint256",
          "name": "Allowance",
          "type": "uint256"
        },
        {
          "indexed": false,
          "internalType": "address",
          "name": "TokenAddress",
          "type": "address"
        },
        {
          "indexed": false,
          "internalType": "string",
          "name": "Name",
          "type": "string"
        },
        {
          "indexed": false,
          "internalType": "string",
          "name": "Description",
          "type": "string"
        },
        {
          "indexed": false,
          "internalType": "uint256",
          "name": "LastExecutionDate",
          "type": "uint256"
        },
        {
          "indexed": false,
          "internalType": "uint256",
          "name": "SubscriptionPeriod",
          "type": "uint256"
        }
      ],
      "name": "NewSubscription",
      "type": "event"
    },
    {
      "anonymous": false,
      "inputs": [
        {
          "indexed": false,
          "internalType": "address",
          "name": "Customer",
          "type": "address"
        },
        {
          "indexed": false,
          "internalType": "address",
          "name": "Payee",
          "type": "address"
        }
      ],
      "name": "SubscriptionCancelled",
      "type": "event"
    },
    {
      "anonymous": false,
      "inputs": [
        {
          "indexed": false,
          "internalType": "address",
          "name": "Customer",
          "type": "address"
        },
        {
          "indexed": false,
          "internalType": "address",
          "name": "Payee",
          "type": "address"
        },
        {
          "indexed": false,
          "internalType": "uint256",
          "name": "PaymentDate",
          "type": "uint256"
        },
        {
          "indexed": false,
          "internalType": "uint256",
          "name": "PaymentAmount",
          "type": "uint256"
        },
        {
          "indexed": false,
          "internalType": "uint256",
          "name": "NextPaymentDate",
          "type": "uint256"
        }
      ],
      "name": "SubscriptionPaid",
      "type": "event"
    },
    {
      "inputs": [
        {
          "internalType": "address",
          "name": "",
          "type": "address"
        },
        {
          "internalType": "uint256",
          "name": "",
          "type": "uint256"
        }
      ],
      "name": "receipts",
      "outputs": [
        {
          "internalType": "address",
          "name": "Customer",
          "type": "address"
        },
        {
          "internalType": "address",
          "name": "Payee",
          "type": "address"
        },
        {
          "internalType": "uint256",
          "name": "Allowance",
          "type": "uint256"
        },
        {
          "internalType": "address",
          "name": "TokenAddress",
          "type": "address"
        },
        {
          "internalType": "string",
          "name": "Name",
          "type": "string"
        },
        {
          "internalType": "string",
          "name": "Description",
          "type": "string"
        },
        {
          "internalType": "uint256",
          "name": "CreationDate",
          "type": "uint256"
        },
        {
          "internalType": "enum RecurringPayments.role",
          "name": "Role",
          "type": "uint8"
        }
      ],
      "stateMutability": "view",
      "type": "function"
    },
    {
      "inputs": [
        {
          "internalType": "address",
          "name": "",
          "type": "address"
        },
        {
          "internalType": "address",
          "name": "",
          "type": "address"
        }
      ],
      "name": "subscriptions",
      "outputs": [
        {
          "internalType": "address",
          "name": "Customer",
          "type": "address"
        },
        {
          "internalType": "address",
          "name": "Payee",
          "type": "address"
        },
        {
          "internalType": "uint256",
          "name": "Allowance",
          "type": "uint256"
        },
        {
          "internalType": "address",
          "name": "TokenAddress",
          "type": "address"
        },
        {
          "internalType": "string",
          "name": "Name",
          "type": "string"
        },
        {
          "internalType": "string",
          "name": "Description",
          "type": "string"
        },
        {
          "internalType": "uint256",
          "name": "LastExecutionDate",
          "type": "uint256"
        },
        {
          "internalType": "uint256",
          "name": "SubscriptionPeriod",
          "type": "uint256"
        },
        {
          "internalType": "bool",
          "name": "IsActive",
          "type": "bool"
        },
        {
          "internalType": "bool",
          "name": "Exists",
          "type": "bool"
        }
      ],
      "stateMutability": "view",
      "type": "function"
    },
    {
      "inputs": [
        {
          "internalType": "address",
          "name": "_customer",
          "type": "address"
        },
        {
          "internalType": "address",
          "name": "_payee",
          "type": "address"
        }
      ],
      "name": "getSubscription",
      "outputs": [
        {
          "components": [
            {
              "internalType": "address",
              "name": "Customer",
              "type": "address"
            },
            {
              "internalType": "address",
              "name": "Payee",
              "type": "address"
            },
            {
              "internalType": "uint256",
              "name": "Allowance",
              "type": "uint256"
            },
            {
              "internalType": "address",
              "name": "TokenAddress",
              "type": "address"
            },
            {
              "internalType": "string",
              "name": "Name",
              "type": "string"
            },
            {
              "internalType": "string",
              "name": "Description",
              "type": "string"
            },
            {
              "internalType": "uint256",
              "name": "LastExecutionDate",
              "type": "uint256"
            },
            {
              "internalType": "uint256",
              "name": "SubscriptionPeriod",
              "type": "uint256"
            },
            {
              "internalType": "bool",
              "name": "IsActive",
              "type": "bool"
            },
            {
              "internalType": "bool",
              "name": "Exists",
              "type": "bool"
            }
          ],
          "internalType": "struct RecurringPayments.Subscription",
          "name": "",
          "type": "tuple"
        }
      ],
      "stateMutability": "view",
      "type": "function"
    },
    {
      "inputs": [
        {
          "internalType": "address",
          "name": "_customer",
          "type": "address"
        }
      ],
      "name": "getSubscriptionReceipts",
      "outputs": [
        {
          "components": [
            {
              "internalType": "address",
              "name": "Customer",
              "type": "address"
            },
            {
              "internalType": "address",
              "name": "Payee",
              "type": "address"
            },
            {
              "internalType": "uint256",
              "name": "Allowance",
              "type": "uint256"
            },
            {
              "internalType": "address",
              "name": "TokenAddress",
              "type": "address"
            },
            {
              "internalType": "string",
              "name": "Name",
              "type": "string"
            },
            {
              "internalType": "string",
              "name": "Description",
              "type": "string"
            },
            {
              "internalType": "uint256",
              "name": "CreationDate",
              "type": "uint256"
            },
            {
              "internalType": "enum RecurringPayments.role",
              "name": "Role",
              "type": "uint8"
            }
          ],
          "internalType": "struct RecurringPayments.SubscriptionReceipt[]",
          "name": "",
          "type": "tuple[]"
        }
      ],
      "stateMutability": "view",
      "type": "function"
    },
    {
      "inputs": [
        {
          "internalType": "address",
          "name": "_customer",
          "type": "address"
        },
        {
          "internalType": "address",
          "name": "_payee",
          "type": "address"
        }
      ],
      "name": "subscriptionTimeRemaining",
      "outputs": [
        {
          "internalType": "uint256",
          "name": "",
          "type": "uint256"
        }
      ],
      "stateMutability": "view",
      "type": "function"
    },
    {
      "inputs": [
        {
          "internalType": "address",
          "name": "_payee",
          "type": "address"
        },
        {
          "internalType": "uint256",
          "name": "_subscriptionCost",
          "type": "uint256"
        },
        {
          "internalType": "address",
          "name": "_token",
          "type": "address"
        },
        {
          "internalType": "string",
          "name": "_name",
          "type": "string"
        },
        {
          "internalType": "string",
          "name": "_description",
          "type": "string"
        },
        {
          "internalType": "uint256",
          "name": "_subscriptionPeriod",
          "type": "uint256"
        }
      ],
      "name": "createSubscription",
      "outputs": [],
      "stateMutability": "nonpayable",
      "type": "function"
    },
    {
      "inputs": [
        {
          "internalType": "address",
          "name": "_customer",
          "type": "address"
        },
        {
          "internalType": "address",
          "name": "_payee",
          "type": "address"
        }
      ],
      "name": "cancelSubscription",
      "outputs": [],
      "stateMutability": "nonpayable",
      "type": "function"
    },
    {
      "inputs": [
        {
          "internalType": "address",
          "name": "_customer",
          "type": "address"
        }
      ],
      "name": "executePayment",
      "outputs": [],
      "stateMutability": "nonpayable",
      "type": "function"
    }
  ],
  "bytecode": "0x608060405234801561001057600080fd5b50612f7c806100206000396000f3fe608060405234801561001057600080fd5b50600436106100885760003560e01c80635b75dd8d1161005b5780635b75dd8d146101255780636207d31b146101555780637946677b1461018e578063a08ad97d146101aa57610088565b8063199944421461008d5780631da2ba96146100a9578063478f73ff146100d95780635ac2a4f3146100f5575b600080fd5b6100a760048036038101906100a29190611b16565b6101e1565b005b6100c360048036038101906100be9190611b43565b6104ca565b6040516100d09190611b9c565b60405180910390f35b6100f360048036038101906100ee9190611d29565b61051d565b005b61010f600480360381019061010a9190611b16565b610de9565b60405161011c919061207b565b60405180910390f35b61013f600480360381019061013a9190611b43565b6110fd565b60405161014c9190612199565b60405180910390f35b61016f600480360381019061016a9190611b43565b61140e565b6040516101859a99989796959493929190612223565b60405180910390f35b6101a860048036038101906101a39190611b43565b6115f9565b005b6101c460048036038101906101bf91906122cd565b6117e0565b6040516101d898979695949392919061231c565b60405180910390f35b3373ffffffffffffffffffffffffffffffffffffffff1661020282336110fd565b6020015173ffffffffffffffffffffffffffffffffffffffff161461025c576040517f08c379a000000000000000000000000000000000000000000000000000000000815260040161025390612440565b60405180910390fd5b6001151561026a82336110fd565b61010001511515146102b1576040517f08c379a00000000000000000000000000000000000000000000000000000000081526004016102a8906124d2565b60405180910390fd5b600115156102bf82336119c2565b151503610301576040517f08c379a00000000000000000000000000000000000000000000000000000000081526004016102f890612564565b60405180910390fd5b600061030d82336110fd565b606001519050426000808473ffffffffffffffffffffffffffffffffffffffff1673ffffffffffffffffffffffffffffffffffffffff16815260200190815260200160002060003373ffffffffffffffffffffffffffffffffffffffff1673ffffffffffffffffffffffffffffffffffffffff168152602001908152602001600020600601819055508073ffffffffffffffffffffffffffffffffffffffff166323b872dd83336103be86336110fd565b604001516040518463ffffffff1660e01b81526004016103e093929190612584565b6020604051808303816000875af11580156103ff573d6000803e3d6000fd5b505050506040513d601f19601f8201168201806040525081019061042391906125e7565b610462576040517f08c379a000000000000000000000000000000000000000000000000000000000815260040161045990612686565b60405180910390fd5b7fa57558827b52212b160ab7f6cc7aaaa834ea3faec58b1d537c042aabb8c172c482334261049086336110fd565b6040015161049e87336110fd565b60e00151426104ad91906126d5565b6040516104be959493929190612709565b60405180910390a15050565b6000806104d784846110fd565b60e001516104e585856110fd565b60c001516104f391906126d5565b905080421115610507576000915050610517565b4281610513919061275c565b9150505b92915050565b60008490506001151561053033896110fd565b6101000151151503610577576040517f08c379a000000000000000000000000000000000000000000000000000000000815260040161056e90612802565b60405180910390fd5b8073ffffffffffffffffffffffffffffffffffffffff166370a08231336040518263ffffffff1660e01b81526004016105b09190612822565b602060405180830381865afa1580156105cd573d6000803e3d6000fd5b505050506040513d601f19601f820116820180604052508101906105f19190612852565b861115610633576040517f08c379a000000000000000000000000000000000000000000000000000000000815260040161062a906128f1565b60405180910390fd5b60008211610676576040517f08c379a000000000000000000000000000000000000000000000000000000000815260040161066d90612983565b60405180910390fd5b6040518061014001604052803373ffffffffffffffffffffffffffffffffffffffff1681526020018873ffffffffffffffffffffffffffffffffffffffff1681526020018781526020018673ffffffffffffffffffffffffffffffffffffffff168152602001858152602001848152602001428152602001838152602001600115158152602001600115158152506000803373ffffffffffffffffffffffffffffffffffffffff1673ffffffffffffffffffffffffffffffffffffffff16815260200190815260200160002060008973ffffffffffffffffffffffffffffffffffffffff1673ffffffffffffffffffffffffffffffffffffffff16815260200190815260200160002060008201518160000160006101000a81548173ffffffffffffffffffffffffffffffffffffffff021916908373ffffffffffffffffffffffffffffffffffffffff16021790555060208201518160010160006101000a81548173ffffffffffffffffffffffffffffffffffffffff021916908373ffffffffffffffffffffffffffffffffffffffff1602179055506040820151816002015560608201518160030160006101000a81548173ffffffffffffffffffffffffffffffffffffffff021916908373ffffffffffffffffffffffffffffffffffffffff16021790555060808201518160040190816108739190612baf565b5060a08201518160050190816108899190612baf565b5060c0820151816006015560e082015181600701556101008201518160080160006101000a81548160ff0219169083151502179055506101208201518160080160016101000a81548160ff021916908315150217905550905050600160003373ffffffffffffffffffffffffffffffffffffffff1673ffffffffffffffffffffffffffffffffffffffff1681526020019081526020016000206040518061010001604052803373ffffffffffffffffffffffffffffffffffffffff1681526020018973ffffffffffffffffffffffffffffffffffffffff1681526020018881526020018773ffffffffffffffffffffffffffffffffffffffff168152602001868152602001858152602001428152602001600060018111156109ae576109ad611eb7565b5b815250908060018154018082558091505060019003906000526020600020906008020160009091909190915060008201518160000160006101000a81548173ffffffffffffffffffffffffffffffffffffffff021916908373ffffffffffffffffffffffffffffffffffffffff16021790555060208201518160010160006101000a81548173ffffffffffffffffffffffffffffffffffffffff021916908373ffffffffffffffffffffffffffffffffffffffff1602179055506040820151816002015560608201518160030160006101000a81548173ffffffffffffffffffffffffffffffffffffffff021916908373ffffffffffffffffffffffffffffffffffffffff1602179055506080820151816004019081610ace9190612baf565b5060a0820151816005019081610ae49190612baf565b5060c0820151816006015560e08201518160070160006101000a81548160ff02191690836001811115610b1a57610b19611eb7565b5b02179055505050600286610b2e9190612c81565b8173ffffffffffffffffffffffffffffffffffffffff1663dd62ed3e33306040518363ffffffff1660e01b8152600401610b69929190612cdb565b602060405180830381865afa158015610b86573d6000803e3d6000fd5b505050506040513d601f19601f82011682018060405250810190610baa9190612852565b10158015610c5357507fffffffffffffffffffffffffffffffffffffffffffffffffffffffffffffffff8173ffffffffffffffffffffffffffffffffffffffff1663dd62ed3e33306040518363ffffffff1660e01b8152600401610c0f929190612cdb565b602060405180830381865afa158015610c2c573d6000803e3d6000fd5b505050506040513d601f19601f82011682018060405250810190610c509190612852565b11155b610c92576040517f08c379a0000000000000000000000000000000000000000000000000000000008152600401610c8990612d76565b60405180910390fd5b8073ffffffffffffffffffffffffffffffffffffffff166323b872dd3389896040518463ffffffff1660e01b8152600401610ccf93929190612584565b6020604051808303816000875af1158015610cee573d6000803e3d6000fd5b505050506040513d601f19601f82011682018060405250810190610d1291906125e7565b610d51576040517f08c379a0000000000000000000000000000000000000000000000000000000008152600401610d4890612e08565b60405180910390fd5b7f3941f5797f4742169b1752bc4cd57a7ae73c35f87080fa63d61a34abdbbbc15e3388888888884289604051610d8e989796959493929190612e28565b60405180910390a17fa57558827b52212b160ab7f6cc7aaaa834ea3faec58b1d537c042aabb8c172c4338842898642610dc791906126d5565b604051610dd8959493929190612709565b60405180910390a150505050505050565b6060600160008373ffffffffffffffffffffffffffffffffffffffff1673ffffffffffffffffffffffffffffffffffffffff168152602001908152602001600020805480602002602001604051908101604052809291908181526020016000905b828210156110f25783829060005260206000209060080201604051806101000160405290816000820160009054906101000a900473ffffffffffffffffffffffffffffffffffffffff1673ffffffffffffffffffffffffffffffffffffffff1673ffffffffffffffffffffffffffffffffffffffff1681526020016001820160009054906101000a900473ffffffffffffffffffffffffffffffffffffffff1673ffffffffffffffffffffffffffffffffffffffff1673ffffffffffffffffffffffffffffffffffffffff168152602001600282015481526020016003820160009054906101000a900473ffffffffffffffffffffffffffffffffffffffff1673ffffffffffffffffffffffffffffffffffffffff1673ffffffffffffffffffffffffffffffffffffffff168152602001600482018054610f8a906129d2565b80601f0160208091040260200160405190810160405280929190818152602001828054610fb6906129d2565b80156110035780601f10610fd857610100808354040283529160200191611003565b820191906000526020600020905b815481529060010190602001808311610fe657829003601f168201915b5050505050815260200160058201805461101c906129d2565b80601f0160208091040260200160405190810160405280929190818152602001828054611048906129d2565b80156110955780601f1061106a57610100808354040283529160200191611095565b820191906000526020600020905b81548152906001019060200180831161107857829003601f168201915b50505050508152602001600682015481526020016007820160009054906101000a900460ff1660018111156110cd576110cc611eb7565b5b60018111156110df576110de611eb7565b5b8152505081526020019060010190610e4a565b505050509050919050565b611105611a0b565b6000808473ffffffffffffffffffffffffffffffffffffffff1673ffffffffffffffffffffffffffffffffffffffff16815260200190815260200160002060008373ffffffffffffffffffffffffffffffffffffffff1673ffffffffffffffffffffffffffffffffffffffff168152602001908152602001600020604051806101400160405290816000820160009054906101000a900473ffffffffffffffffffffffffffffffffffffffff1673ffffffffffffffffffffffffffffffffffffffff1673ffffffffffffffffffffffffffffffffffffffff1681526020016001820160009054906101000a900473ffffffffffffffffffffffffffffffffffffffff1673ffffffffffffffffffffffffffffffffffffffff1673ffffffffffffffffffffffffffffffffffffffff168152602001600282015481526020016003820160009054906101000a900473ffffffffffffffffffffffffffffffffffffffff1673ffffffffffffffffffffffffffffffffffffffff1673ffffffffffffffffffffffffffffffffffffffff1681526020016004820180546112a8906129d2565b80601f01602080910402602001604051908101604052809291908181526020018280546112d4906129d2565b80156113215780601f106112f657610100808354040283529160200191611321565b820191906000526020600020905b81548152906001019060200180831161130457829003601f168201915b5050505050815260200160058201805461133a906129d2565b80601f0160208091040260200160405190810160405280929190818152602001828054611366906129d2565b80156113b35780601f10611388576101008083540402835291602001916113b3565b820191906000526020600020905b81548152906001019060200180831161139657829003601f168201915b5050505050815260200160068201548152602001600782015481526020016008820160009054906101000a900460ff161515151581526020016008820160019054906101000a900460ff161515151581525050905092915050565b6000602052816000526040600020602052806000526040600020600091509150508060000160009054906101000a900473ffffffffffffffffffffffffffffffffffffffff16908060010160009054906101000a900473ffffffffffffffffffffffffffffffffffffffff16908060020154908060030160009054906101000a900473ffffffffffffffffffffffffffffffffffffffff16908060040180546114b6906129d2565b80601f01602080910402602001604051908101604052809291908181526020018280546114e2906129d2565b801561152f5780601f106115045761010080835404028352916020019161152f565b820191906000526020600020905b81548152906001019060200180831161151257829003601f168201915b505050505090806005018054611544906129d2565b80601f0160208091040260200160405190810160405280929190818152602001828054611570906129d2565b80156115bd5780601f10611592576101008083540402835291602001916115bd565b820191906000526020600020905b8154815290600101906020018083116115a057829003601f168201915b5050505050908060060154908060070154908060080160009054906101000a900460ff16908060080160019054906101000a900460ff1690508a565b3373ffffffffffffffffffffffffffffffffffffffff1661161a83836110fd565b6000015173ffffffffffffffffffffffffffffffffffffffff16148061167857503373ffffffffffffffffffffffffffffffffffffffff1661165c83836110fd565b6020015173ffffffffffffffffffffffffffffffffffffffff16145b6116b7576040517f08c379a00000000000000000000000000000000000000000000000000000000081526004016116ae90612f26565b60405180910390fd5b600115156116c583836110fd565b610100015115151461170c576040517f08c379a0000000000000000000000000000000000000000000000000000000008152600401611703906124d2565b60405180910390fd5b60008060008473ffffffffffffffffffffffffffffffffffffffff1673ffffffffffffffffffffffffffffffffffffffff16815260200190815260200160002060008373ffffffffffffffffffffffffffffffffffffffff1673ffffffffffffffffffffffffffffffffffffffff16815260200190815260200160002060080160006101000a81548160ff0219169083151502179055507f4f63ff9c987ba9233a93b549bdb283252838f696fe1349ef76a85e2ae7f822e382826040516117d4929190612cdb565b60405180910390a15050565b600160205281600052604060002081815481106117fc57600080fd5b9060005260206000209060080201600091509150508060000160009054906101000a900473ffffffffffffffffffffffffffffffffffffffff16908060010160009054906101000a900473ffffffffffffffffffffffffffffffffffffffff16908060020154908060030160009054906101000a900473ffffffffffffffffffffffffffffffffffffffff1690806004018054611898906129d2565b80601f01602080910402602001604051908101604052809291908181526020018280546118c4906129d2565b80156119115780601f106118e657610100808354040283529160200191611911565b820191906000526020600020905b8154815290600101906020018083116118f457829003601f168201915b505050505090806005018054611926906129d2565b80601f0160208091040260200160405190810160405280929190818152602001828054611952906129d2565b801561199f5780601f106119745761010080835404028352916020019161199f565b820191906000526020600020905b81548152906001019060200180831161198257829003601f168201915b5050505050908060060154908060070160009054906101000a900460ff16905088565b6000806119cf84846110fd565b60e001516119dd85856110fd565b60c001516119eb91906126d5565b9050804211156119ff576000915050611a05565b60019150505b92915050565b604051806101400160405280600073ffffffffffffffffffffffffffffffffffffffff168152602001600073ffffffffffffffffffffffffffffffffffffffff16815260200160008152602001600073ffffffffffffffffffffffffffffffffffffffff168152602001606081526020016060815260200160008152602001600081526020016000151581526020016000151581525090565b6000604051905090565b600080fd5b600080fd5b600073ffffffffffffffffffffffffffffffffffffffff82169050919050565b6000611ae382611ab8565b9050919050565b611af381611ad8565b8114611afe57600080fd5b50565b600081359050611b1081611aea565b92915050565b600060208284031215611b2c57611b2b611aae565b5b6000611b3a84828501611b01565b91505092915050565b60008060408385031215611b5a57611b59611aae565b5b6000611b6885828601611b01565b9250506020611b7985828601611b01565b9150509250929050565b6000819050919050565b611b9681611b83565b82525050565b6000602082019050611bb16000830184611b8d565b92915050565b611bc081611b83565b8114611bcb57600080fd5b50565b600081359050611bdd81611bb7565b92915050565b600080fd5b600080fd5b6000601f19601f8301169050919050565b7f4e487b7100000000000000000000000000000000000000000000000000000000600052604160045260246000fd5b611c3682611bed565b810181811067ffffffffffffffff82111715611c5557611c54611bfe565b5b80604052505050565b6000611c68611aa4565b9050611c748282611c2d565b919050565b600067ffffffffffffffff821115611c9457611c93611bfe565b5b611c9d82611bed565b9050602081019050919050565b82818337600083830152505050565b6000611ccc611cc784611c79565b611c5e565b905082815260208101848484011115611ce857611ce7611be8565b5b611cf3848285611caa565b509392505050565b600082601f830112611d1057611d0f611be3565b5b8135611d20848260208601611cb9565b91505092915050565b60008060008060008060c08789031215611d4657611d45611aae565b5b6000611d5489828a01611b01565b9650506020611d6589828a01611bce565b9550506040611d7689828a01611b01565b945050606087013567ffffffffffffffff811115611d9757611d96611ab3565b5b611da389828a01611cfb565b935050608087013567ffffffffffffffff811115611dc457611dc3611ab3565b5b611dd089828a01611cfb565b92505060a0611de189828a01611bce565b9150509295509295509295565b600081519050919050565b600082825260208201905092915050565b6000819050602082019050919050565b611e2381611ad8565b82525050565b611e3281611b83565b82525050565b600081519050919050565b600082825260208201905092915050565b60005b83811015611e72578082015181840152602081019050611e57565b60008484015250505050565b6000611e8982611e38565b611e938185611e43565b9350611ea3818560208601611e54565b611eac81611bed565b840191505092915050565b7f4e487b7100000000000000000000000000000000000000000000000000000000600052602160045260246000fd5b60028110611ef757611ef6611eb7565b5b50565b6000819050611f0882611ee6565b919050565b6000611f1882611efa565b9050919050565b611f2881611f0d565b82525050565b600061010083016000830151611f476000860182611e1a565b506020830151611f5a6020860182611e1a565b506040830151611f6d6040860182611e29565b506060830151611f806060860182611e1a565b5060808301518482036080860152611f988282611e7e565b91505060a083015184820360a0860152611fb28282611e7e565b91505060c0830151611fc760c0860182611e29565b5060e0830151611fda60e0860182611f1f565b508091505092915050565b6000611ff18383611f2e565b905092915050565b6000602082019050919050565b600061201182611dee565b61201b8185611df9565b93508360208202850161202d85611e0a565b8060005b85811015612069578484038952815161204a8582611fe5565b945061205583611ff9565b925060208a01995050600181019050612031565b50829750879550505050505092915050565b600060208201905081810360008301526120958184612006565b905092915050565b60008115159050919050565b6120b28161209d565b82525050565b6000610140830160008301516120d16000860182611e1a565b5060208301516120e46020860182611e1a565b5060408301516120f76040860182611e29565b50606083015161210a6060860182611e1a565b50608083015184820360808601526121228282611e7e565b91505060a083015184820360a086015261213c8282611e7e565b91505060c083015161215160c0860182611e29565b5060e083015161216460e0860182611e29565b506101008301516121796101008601826120a9565b5061012083015161218e6101208601826120a9565b508091505092915050565b600060208201905081810360008301526121b381846120b8565b905092915050565b6121c481611ad8565b82525050565b600082825260208201905092915050565b60006121e682611e38565b6121f081856121ca565b9350612200818560208601611e54565b61220981611bed565b840191505092915050565b61221d8161209d565b82525050565b600061014082019050612239600083018d6121bb565b612246602083018c6121bb565b612253604083018b611b8d565b612260606083018a6121bb565b818103608083015261227281896121db565b905081810360a083015261228681886121db565b905061229560c0830187611b8d565b6122a260e0830186611b8d565b6122b0610100830185612214565b6122be610120830184612214565b9b9a5050505050505050505050565b600080604083850312156122e4576122e3611aae565b5b60006122f285828601611b01565b925050602061230385828601611bce565b9150509250929050565b61231681611f0d565b82525050565b600061010082019050612332600083018b6121bb565b61233f602083018a6121bb565b61234c6040830189611b8d565b61235960608301886121bb565b818103608083015261236b81876121db565b905081810360a083015261237f81866121db565b905061238e60c0830185611b8d565b61239b60e083018461230d565b9998505050505050505050565b7f30785355423a204f6e6c7920737562736372697074696f6e207061796565732060008201527f6d61792065786563757465206120737562736372697074696f6e207061796d6560208201527f6e742e0000000000000000000000000000000000000000000000000000000000604082015250565b600061242a6043836121ca565b9150612435826123a8565b606082019050919050565b600060208201905081810360008301526124598161241d565b9050919050565b7f30785355423a20537562736372697074696f6e20616c726561647920696e616360008201527f746976652e000000000000000000000000000000000000000000000000000000602082015250565b60006124bc6025836121ca565b91506124c782612460565b604082019050919050565b600060208201905081810360008301526124eb816124af565b9050919050565b7f30785355423a20537562736372697074696f6e20616c7265616479207061696460008201527f20666f72207468697320706572696f642e000000000000000000000000000000602082015250565b600061254e6031836121ca565b9150612559826124f2565b604082019050919050565b6000602082019050818103600083015261257d81612541565b9050919050565b600060608201905061259960008301866121bb565b6125a660208301856121bb565b6125b36040830184611b8d565b949350505050565b6125c48161209d565b81146125cf57600080fd5b50565b6000815190506125e1816125bb565b92915050565b6000602082840312156125fd576125fc611aae565b5b600061260b848285016125d2565b91505092915050565b7f30785355423a20537562736372697074696f6e207061796d656e74206661696c60008201527f65642e0000000000000000000000000000000000000000000000000000000000602082015250565b60006126706023836121ca565b915061267b82612614565b604082019050919050565b6000602082019050818103600083015261269f81612663565b9050919050565b7f4e487b7100000000000000000000000000000000000000000000000000000000600052601160045260246000fd5b60006126e082611b83565b91506126eb83611b83565b9250828201905080821115612703576127026126a6565b5b92915050565b600060a08201905061271e60008301886121bb565b61272b60208301876121bb565b6127386040830186611b8d565b6127456060830185611b8d565b6127526080830184611b8d565b9695505050505050565b600061276782611b83565b915061277283611b83565b925082820390508181111561278a576127896126a6565b5b92915050565b7f30785355423a2041637469766520737562736372697074696f6e20616c72656160008201527f6479206578697374732e20000000000000000000000000000000000000000000602082015250565b60006127ec602b836121ca565b91506127f782612790565b604082019050919050565b6000602082019050818103600083015261281b816127df565b9050919050565b600060208201905061283760008301846121bb565b92915050565b60008151905061284c81611bb7565b92915050565b60006020828403121561286857612867611aae565b5b60006128768482850161283d565b91505092915050565b7f30785355423a20496e73756666696369656e7420746f6b656e2062616c616e6360008201527f652e000000000000000000000000000000000000000000000000000000000000602082015250565b60006128db6022836121ca565b91506128e68261287f565b604082019050919050565b6000602082019050818103600083015261290a816128ce565b9050919050565b7f30785355423a20537562736372697074696f6e20706572696f64206d7573742060008201527f62652067726561746572207468616e20302e0000000000000000000000000000602082015250565b600061296d6032836121ca565b915061297882612911565b604082019050919050565b6000602082019050818103600083015261299c81612960565b9050919050565b7f4e487b7100000000000000000000000000000000000000000000000000000000600052602260045260246000fd5b600060028204905060018216806129ea57607f821691505b6020821081036129fd576129fc6129a3565b5b50919050565b60008190508160005260206000209050919050565b60006020601f8301049050919050565b600082821b905092915050565b600060088302612a657fffffffffffffffffffffffffffffffffffffffffffffffffffffffffffffffff82612a28565b612a6f8683612a28565b95508019841693508086168417925050509392505050565b6000819050919050565b6000612aac612aa7612aa284611b83565b612a87565b611b83565b9050919050565b6000819050919050565b612ac683612a91565b612ada612ad282612ab3565b848454612a35565b825550505050565b600090565b612aef612ae2565b612afa818484612abd565b505050565b5b81811015612b1e57612b13600082612ae7565b600181019050612b00565b5050565b601f821115612b6357612b3481612a03565b612b3d84612a18565b81016020851015612b4c578190505b612b60612b5885612a18565b830182612aff565b50505b505050565b600082821c905092915050565b6000612b8660001984600802612b68565b1980831691505092915050565b6000612b9f8383612b75565b9150826002028217905092915050565b612bb882611e38565b67ffffffffffffffff811115612bd157612bd0611bfe565b5b612bdb82546129d2565b612be6828285612b22565b600060209050601f831160018114612c195760008415612c07578287015190505b612c118582612b93565b865550612c79565b601f198416612c2786612a03565b60005b82811015612c4f57848901518255600182019150602085019450602081019050612c2a565b86831015612c6c5784890151612c68601f891682612b75565b8355505b6001600288020188555050505b505050505050565b6000612c8c82611b83565b9150612c9783611b83565b9250817fffffffffffffffffffffffffffffffffffffffffffffffffffffffffffffffff0483118215151615612cd057612ccf6126a6565b5b828202905092915050565b6000604082019050612cf060008301856121bb565b612cfd60208301846121bb565b9392505050565b7f30785355423a20416c6c6f77616e6365206f6620285f7375627363726970746960008201527f6f6e436f7374202a2032292072657175697265642e0000000000000000000000602082015250565b6000612d606035836121ca565b9150612d6b82612d04565b604082019050919050565b60006020820190508181036000830152612d8f81612d53565b9050919050565b7f30785355423a20496e697469616c20737562736372697074696f6e207061796d60008201527f656e74206661696c65642e000000000000000000000000000000000000000000602082015250565b6000612df2602b836121ca565b9150612dfd82612d96565b604082019050919050565b60006020820190508181036000830152612e2181612de5565b9050919050565b600061010082019050612e3e600083018b6121bb565b612e4b602083018a6121bb565b612e586040830189611b8d565b612e6560608301886121bb565b8181036080830152612e7781876121db565b905081810360a0830152612e8b81866121db565b9050612e9a60c0830185611b8d565b612ea760e0830184611b8d565b9998505050505050505050565b7f30785355423a204f6e6c7920737562736372697074696f6e207061727469657360008201527f2063616e2063616e63656c206120737562736372697074696f6e2e0000000000602082015250565b6000612f10603b836121ca565b9150612f1b82612eb4565b604082019050919050565b60006020820190508181036000830152612f3f81612f03565b905091905056fea2646970667358221220b428ee51951641c8be0f4dce390884075d3ec7c2fcf687cb9b2130f4506bd26664736f6c63430008100033",
  "immutableReferences": {},
  "source": "// SPDX-License-Identifier: MIT\r\n\r\npragma solidity ^0.8.4;\r\n\r\n\r\ncontract IERC20 {\r\n    function approve(address spender, uint256 value) public virtual returns (bool) {}\r\n    function transfer(address to, uint256 value) public virtual returns (bool) {}\r\n    function transferFrom(address from, address to, uint256 value) public virtual returns (bool) {}\r\n    function name() public view virtual returns (string memory){}\r\n    function symbol() public view virtual returns (string memory) {}\r\n    function decimals() public view virtual returns (uint256) {}\r\n    function totalSupply() public view virtual returns (uint256) {}\r\n    function balanceOf(address account) public view virtual returns (uint256) {}\r\n    function allowance(address owner, address spender) public view virtual returns (uint256) {} \r\n}\r\n\r\ncontract RecurringPayments {\r\n\r\n    event NewSubscription(\r\n        address Customer,\r\n        address Payee,\r\n        uint256 Allowance,\r\n        address TokenAddress,\r\n        string Name,\r\n        string Description,\r\n        uint256 LastExecutionDate,\r\n        uint256 SubscriptionPeriod\r\n    );\r\n\r\n    event SubscriptionCancelled(\r\n    address Customer,\r\n    address Payee\r\n    );\r\n\r\n    event SubscriptionPaid(\r\n        address Customer,\r\n        address Payee,\r\n        uint256 PaymentDate,\r\n        uint256 PaymentAmount,\r\n        uint256 NextPaymentDate\r\n    );\r\n\r\n    mapping(address => mapping(address => Subscription)) public subscriptions;\r\n\r\n    mapping (address => SubscriptionReceipt[]) public receipts;\r\n\r\n    struct Subscription {\r\n        address Customer;\r\n        address Payee;\r\n        uint256 Allowance;\r\n        address TokenAddress;\r\n        string Name;\r\n        string Description;\r\n        uint256 LastExecutionDate;\r\n        uint256 SubscriptionPeriod;\r\n        bool IsActive;\r\n        bool Exists;\r\n    }\r\n\r\n    enum role {\r\n        CUSTOMER,\r\n        PAYEE\r\n    }\r\n\r\n    struct SubscriptionReceipt {\r\n        address Customer;\r\n        address Payee;\r\n        uint256 Allowance;\r\n        address TokenAddress;\r\n        string Name;\r\n        string Description;\r\n        uint256 CreationDate;\r\n        role Role;\r\n    }\r\n\r\n    constructor() {\r\n\r\n    }\r\n\r\n    function getSubscription(address _customer, address _payee) public view returns (Subscription memory ){\r\n        return subscriptions[_customer][_payee];\r\n    }\r\n\r\n    function getSubscriptionReceipts(address _customer) public view returns (SubscriptionReceipt[] memory) {\r\n        return receipts[_customer];\r\n    }\r\n\r\n    function subscriptionTimeRemaining(address _customer, address _payee) public view returns(uint256){\r\n        uint256 remaining = getSubscription(_customer, _payee).LastExecutionDate+getSubscription(_customer, _payee).SubscriptionPeriod;\r\n        if(block.timestamp > remaining){\r\n            return 0;\r\n        }\r\n        else {\r\n            return remaining - block.timestamp;\r\n        }\r\n    }\r\n\r\n    function createSubscription(\r\n        address _payee,\r\n        uint256 _subscriptionCost,\r\n        address _token,\r\n        string memory _name,\r\n        string memory _description,\r\n        uint256 _subscriptionPeriod ) public virtual {\r\n        IERC20 tokenInterface;\r\n        tokenInterface = IERC20(_token);\r\n\r\n        require(getSubscription(msg.sender, _payee).IsActive != true, \"0xSUB: Active subscription already exists. \");\r\n        require(_subscriptionCost <= tokenInterface.balanceOf(msg.sender), \"0xSUB: Insufficient token balance.\");\r\n        require(_subscriptionPeriod > 0, \"0xSUB: Subscription period must be greater than 0.\");\r\n\r\n        subscriptions[msg.sender][_payee] = Subscription(\r\n            msg.sender,\r\n            _payee,\r\n            _subscriptionCost,\r\n            _token,\r\n            _name,\r\n            _description,\r\n            block.timestamp,\r\n            _subscriptionPeriod,\r\n            true,\r\n            true\r\n\r\n            );\r\n        receipts[msg.sender].push(SubscriptionReceipt(\r\n            msg.sender,\r\n            _payee,\r\n            _subscriptionCost,\r\n            _token,\r\n            _name,\r\n            _description,\r\n            block.timestamp,\r\n            role.CUSTOMER\r\n            ));\r\n        require((tokenInterface.allowance(msg.sender, address(this)) >= (_subscriptionCost * 2)) && (tokenInterface.allowance(msg.sender, address(this)) <= 0xffffffffffffffffffffffffffffffffffffffffffffffffffffffffffffffff), \"0xSUB: Allowance of (_subscriptionCost * 2) required.\");\r\n        require(tokenInterface.transferFrom(msg.sender, _payee, _subscriptionCost), \"0xSUB: Initial subscription payment failed.\");\r\n\r\n        emit NewSubscription(msg.sender, _payee, _subscriptionCost, _token, _name, _description, block.timestamp, _subscriptionPeriod);\r\n        emit SubscriptionPaid(msg.sender, _payee, block.timestamp, _subscriptionCost, block.timestamp+_subscriptionPeriod);\r\n        }\r\n\r\n    function cancelSubscription(\r\n        address _customer,\r\n        address _payee ) public virtual {\r\n        require((getSubscription(_customer, _payee).Customer == msg.sender || getSubscription(_customer, _payee).Payee == msg.sender), \"0xSUB: Only subscription parties can cancel a subscription.\");\r\n        require(getSubscription(_customer, _payee).IsActive == true, \"0xSUB: Subscription already inactive.\");\r\n\r\n        subscriptions[_customer][_payee].IsActive = false;\r\n\r\n        emit SubscriptionCancelled(_customer, _payee);\r\n    }\r\n\r\n    function executePayment(\r\n        address _customer\r\n    )   public virtual {\r\n        require(getSubscription(_customer, msg.sender).Payee == msg.sender, \"0xSUB: Only subscription payees may execute a subscription payment.\");\r\n        require(getSubscription(_customer, msg.sender).IsActive == true, \"0xSUB: Subscription already inactive.\");\r\n        require(_subscriptionPaid(_customer, msg.sender) != true, \"0xSUB: Subscription already paid for this period.\");\r\n\r\n        IERC20 tokenInterface;\r\n        tokenInterface = IERC20(getSubscription(_customer, msg.sender).TokenAddress);\r\n\r\n        subscriptions[_customer][msg.sender].LastExecutionDate = block.timestamp;\r\n        require(tokenInterface.transferFrom(_customer, msg.sender, getSubscription(_customer, msg.sender).Allowance), \"0xSUB: Subscription payment failed.\");\r\n\r\n\r\n        emit SubscriptionPaid(_customer, msg.sender, block.timestamp, getSubscription(_customer, msg.sender).Allowance, block.timestamp+getSubscription(_customer, msg.sender).SubscriptionPeriod);\r\n    }\r\n    function _subscriptionPaid(address _customer, address _payee) internal view returns(bool){\r\n        uint256 remaining = getSubscription(_customer, _payee).LastExecutionDate+getSubscription(_customer, _payee).SubscriptionPeriod;\r\n        if(block.timestamp > remaining){\r\n            return false;\r\n        }\r\n        else {\r\n            return true;\r\n        }\r\n    }\r\n\r\n}\r\n",
  "sourcePath": "C:\\Users\\Acer\\Dropbox\\PC\\Desktop\\Hackathon Project\\OnlyTokens\\src\\contracts\\OnlySubscription.sol",
  "compiler": {
    "name": "solc",
    "version": "0.8.16+commit.07a7930e.Emscripten.clang"
  },
  "schemaVersion": "3.4.8",
  "updatedAt": "2022-08-08T16:47:28.176Z",
  "devdoc": {
    "kind": "dev",
    "methods": {},
    "version": 1
  },
  "userdoc": {
    "kind": "user",
    "methods": {},
    "version": 1
  }
}